{
	"contracts/Parent.sol": {
		"ParentAAAs": {
			"abi": [
				{
					"inputs": [
						{
							"internalType": "uint256",
							"name": "_input",
							"type": "uint256"
						}
					],
					"stateMutability": "nonpayable",
					"type": "constructor"
				},
				{
					"inputs": [],
					"name": "value",
					"outputs": [
						{
							"internalType": "uint256",
							"name": "",
							"type": "uint256"
						}
					],
					"stateMutability": "view",
					"type": "function"
				}
			],
			"devdoc": {
				"kind": "dev",
				"methods": {},
				"version": 1
			},
			"evm": {
				"assembly": "    /* \"contracts/Parent.sol\":114:256  contract ParentAAAs {... */\n  mstore(0x40, 0x80)\n    /* \"contracts/Parent.sol\":167:254  constructor(uint256 _input) {... */\n  callvalue\n  dup1\n  iszero\n  tag_1\n  jumpi\n  0x00\n  dup1\n  revert\ntag_1:\n  pop\n  mload(0x40)\n  sub(codesize, bytecodeSize)\n  dup1\n  bytecodeSize\n  dup4\n  codecopy\n  dup2\n  dup2\n  add\n  0x40\n  mstore\n  dup2\n  add\n  swap1\n  tag_2\n  swap2\n  swap1\n  tag_3\n  jump\t// in\ntag_2:\n    /* \"contracts/Parent.sol\":213:219  _input */\n  dup1\n    /* \"contracts/Parent.sol\":205:210  value */\n  0x00\n    /* \"contracts/Parent.sol\":205:219  value = _input */\n  dup2\n  swap1\n  sstore\n  pop\n    /* \"contracts/Parent.sol\":229:247  console.log(value) */\n  tag_6\n    /* \"contracts/Parent.sol\":241:246  value */\n  sload(0x00)\n    /* \"contracts/Parent.sol\":229:240  console.log */\n  shl(0x20, tag_7)\n    /* \"contracts/Parent.sol\":229:247  console.log(value) */\n  0x20\n  shr\n  jump\t// in\ntag_6:\n    /* \"contracts/Parent.sol\":167:254  constructor(uint256 _input) {... */\n  pop\n    /* \"contracts/Parent.sol\":114:256  contract ParentAAAs {... */\n  jump(tag_8)\n    /* \"hardhat/console.sol\":6141:6259  function log(uint256 p0) internal pure {... */\ntag_7:\n    /* \"hardhat/console.sol\":6191:6251  _sendLogPayload(abi.encodeWithSignature(\"log(uint256)\", p0)) */\n  tag_10\n    /* \"hardhat/console.sol\":6247:6249  p0 */\n  dup2\n    /* \"hardhat/console.sol\":6207:6250  abi.encodeWithSignature(\"log(uint256)\", p0) */\n  add(0x24, mload(0x40))\n  tag_11\n  swap2\n  swap1\n  tag_12\n  jump\t// in\ntag_11:\n  mload(0x40)\n  0x20\n  dup2\n  dup4\n  sub\n  sub\n  dup2\n  mstore\n  swap1\n  0x40\n  mstore\n  and(not(0xffffffffffffffffffffffffffffffffffffffffffffffffffffffff), 0xf82c50f100000000000000000000000000000000000000000000000000000000)\n  0x20\n  dup3\n  add\n  dup1\n  mload\n  0xffffffffffffffffffffffffffffffffffffffffffffffffffffffff\n  dup4\n  dup2\n  dup4\n  and\n  or\n  dup4\n  mstore\n  pop\n  pop\n  pop\n  pop\n    /* \"hardhat/console.sol\":6191:6206  _sendLogPayload */\n  shl(0x20, tag_13)\n    /* \"hardhat/console.sol\":6191:6251  _sendLogPayload(abi.encodeWithSignature(\"log(uint256)\", p0)) */\n  0x20\n  shr\n  jump\t// in\ntag_10:\n    /* \"hardhat/console.sol\":6141:6259  function log(uint256 p0) internal pure {... */\n  pop\n  jump\t// out\n    /* \"hardhat/console.sol\":883:1014  function _sendLogPayload(bytes memory payload) internal pure {... */\ntag_13:\n    /* \"hardhat/console.sol\":955:1006  _castToPure(_sendLogPayloadImplementation)(payload) */\n  tag_15\n    /* \"hardhat/console.sol\":998:1005  payload */\n  dup2\n    /* \"hardhat/console.sol\":955:997  _castToPure(_sendLogPayloadImplementation) */\n  tag_16\n    /* \"hardhat/console.sol\":967:996  _sendLogPayloadImplementation */\n  or(tag_0_8, shl(0x20, tag_17))\n    /* \"hardhat/console.sol\":955:966  _castToPure */\n  shl(0x20, tag_18)\n    /* \"hardhat/console.sol\":955:997  _castToPure(_sendLogPayloadImplementation) */\n  0x20\n  shr\n  jump\t// in\ntag_16:\n    /* \"hardhat/console.sol\":955:1006  _castToPure(_sendLogPayloadImplementation)(payload) */\n  0x20\n  shr\n  jump\t// in\ntag_15:\n    /* \"hardhat/console.sol\":883:1014  function _sendLogPayload(bytes memory payload) internal pure {... */\n  pop\n  jump\t// out\n    /* \"hardhat/console.sol\":187:665  function _sendLogPayloadImplementation(bytes memory payload) internal view {... */\ntag_17:\n    /* \"hardhat/console.sol\":273:295  address consoleAddress */\n  0x00\n    /* \"hardhat/console.sol\":136:178  0x000000000000000000636F6e736F6c652e6c6f67 */\n  0x636f6e736f6c652e6c6f67\n    /* \"hardhat/console.sol\":273:313  address consoleAddress = CONSOLE_ADDRESS */\n  swap1\n  pop\n    /* \"hardhat/console.sol\":612:613  0 */\n  0x00\n    /* \"hardhat/console.sol\":588:589  0 */\n  dup1\n    /* \"hardhat/console.sol\":557:564  payload */\n  dup4\n    /* \"hardhat/console.sol\":551:565  mload(payload) */\n  mload\n    /* \"hardhat/console.sol\":525:527  32 */\n  0x20\n    /* \"hardhat/console.sol\":516:523  payload */\n  dup6\n    /* \"hardhat/console.sol\":512:528  add(payload, 32) */\n  add\n    /* \"hardhat/console.sol\":475:489  consoleAddress */\n  dup5\n    /* \"hardhat/console.sol\":447:452  gas() */\n  gas\n    /* \"hardhat/console.sol\":414:632  staticcall(... */\n  staticcall\n    /* \"hardhat/console.sol\":392:647  pop(... */\n  pop\n    /* \"hardhat/console.sol\":377:658  {... */\n  pop\n    /* \"hardhat/console.sol\":187:665  function _sendLogPayloadImplementation(bytes memory payload) internal view {... */\n  pop\n  jump\t// out\n    /* \"hardhat/console.sol\":673:875  function _castToPure(... */\ntag_18:\n    /* \"hardhat/console.sol\":774:807  function(bytes memory) pure fnOut */\n  or(tag_0_9, shl(0x20, tag_20))\n    /* \"hardhat/console.sol\":853:857  fnIn */\n  dup2\n    /* \"hardhat/console.sol\":844:857  fnOut := fnIn */\n  swap1\n  pop\n    /* \"hardhat/console.sol\":673:875  function _castToPure(... */\n  swap2\n  swap1\n  pop\n  jump\t// out\n    /* \"contracts/Parent.sol\":114:256  contract ParentAAAs {... */\ntag_20:\n  tag_22\n  tag_23\n  jump\t// in\ntag_22:\n  jump\t// out\n    /* \"#utility.yul\":88:205   */\ntag_25:\n    /* \"#utility.yul\":197:198   */\n  0x00\n    /* \"#utility.yul\":194:195   */\n  dup1\n    /* \"#utility.yul\":187:199   */\n  revert\n    /* \"#utility.yul\":334:411   */\ntag_27:\n    /* \"#utility.yul\":371:378   */\n  0x00\n    /* \"#utility.yul\":400:405   */\n  dup2\n    /* \"#utility.yul\":389:405   */\n  swap1\n  pop\n    /* \"#utility.yul\":334:411   */\n  swap2\n  swap1\n  pop\n  jump\t// out\n    /* \"#utility.yul\":417:539   */\ntag_28:\n    /* \"#utility.yul\":490:514   */\n  tag_37\n    /* \"#utility.yul\":508:513   */\n  dup2\n    /* \"#utility.yul\":490:514   */\n  tag_27\n  jump\t// in\ntag_37:\n    /* \"#utility.yul\":483:488   */\n  dup2\n    /* \"#utility.yul\":480:515   */\n  eq\n    /* \"#utility.yul\":470:533   */\n  tag_38\n  jumpi\n    /* \"#utility.yul\":529:530   */\n  0x00\n    /* \"#utility.yul\":526:527   */\n  dup1\n    /* \"#utility.yul\":519:531   */\n  revert\n    /* \"#utility.yul\":470:533   */\ntag_38:\n    /* \"#utility.yul\":417:539   */\n  pop\n  jump\t// out\n    /* \"#utility.yul\":545:688   */\ntag_29:\n    /* \"#utility.yul\":602:607   */\n  0x00\n    /* \"#utility.yul\":633:639   */\n  dup2\n    /* \"#utility.yul\":627:640   */\n  mload\n    /* \"#utility.yul\":618:640   */\n  swap1\n  pop\n    /* \"#utility.yul\":649:682   */\n  tag_40\n    /* \"#utility.yul\":676:681   */\n  dup2\n    /* \"#utility.yul\":649:682   */\n  tag_28\n  jump\t// in\ntag_40:\n    /* \"#utility.yul\":545:688   */\n  swap3\n  swap2\n  pop\n  pop\n  jump\t// out\n    /* \"#utility.yul\":694:1045   */\ntag_3:\n    /* \"#utility.yul\":764:770   */\n  0x00\n    /* \"#utility.yul\":813:815   */\n  0x20\n    /* \"#utility.yul\":801:810   */\n  dup3\n    /* \"#utility.yul\":792:799   */\n  dup5\n    /* \"#utility.yul\":788:811   */\n  sub\n    /* \"#utility.yul\":784:816   */\n  slt\n    /* \"#utility.yul\":781:900   */\n  iszero\n  tag_42\n  jumpi\n    /* \"#utility.yul\":819:898   */\n  tag_43\n  tag_25\n  jump\t// in\ntag_43:\n    /* \"#utility.yul\":781:900   */\ntag_42:\n    /* \"#utility.yul\":939:940   */\n  0x00\n    /* \"#utility.yul\":964:1028   */\n  tag_44\n    /* \"#utility.yul\":1020:1027   */\n  dup5\n    /* \"#utility.yul\":1011:1017   */\n  dup3\n    /* \"#utility.yul\":1000:1009   */\n  dup6\n    /* \"#utility.yul\":996:1018   */\n  add\n    /* \"#utility.yul\":964:1028   */\n  tag_29\n  jump\t// in\ntag_44:\n    /* \"#utility.yul\":954:1028   */\n  swap2\n  pop\n    /* \"#utility.yul\":910:1038   */\n  pop\n    /* \"#utility.yul\":694:1045   */\n  swap3\n  swap2\n  pop\n  pop\n  jump\t// out\n    /* \"#utility.yul\":1051:1169   */\ntag_30:\n    /* \"#utility.yul\":1138:1162   */\n  tag_46\n    /* \"#utility.yul\":1156:1161   */\n  dup2\n    /* \"#utility.yul\":1138:1162   */\n  tag_27\n  jump\t// in\ntag_46:\n    /* \"#utility.yul\":1133:1136   */\n  dup3\n    /* \"#utility.yul\":1126:1163   */\n  mstore\n    /* \"#utility.yul\":1051:1169   */\n  pop\n  pop\n  jump\t// out\n    /* \"#utility.yul\":1175:1397   */\ntag_12:\n    /* \"#utility.yul\":1268:1272   */\n  0x00\n    /* \"#utility.yul\":1306:1308   */\n  0x20\n    /* \"#utility.yul\":1295:1304   */\n  dup3\n    /* \"#utility.yul\":1291:1309   */\n  add\n    /* \"#utility.yul\":1283:1309   */\n  swap1\n  pop\n    /* \"#utility.yul\":1319:1390   */\n  tag_48\n    /* \"#utility.yul\":1387:1388   */\n  0x00\n    /* \"#utility.yul\":1376:1385   */\n  dup4\n    /* \"#utility.yul\":1372:1389   */\n  add\n    /* \"#utility.yul\":1363:1369   */\n  dup5\n    /* \"#utility.yul\":1319:1390   */\n  tag_30\n  jump\t// in\ntag_48:\n    /* \"#utility.yul\":1175:1397   */\n  swap3\n  swap2\n  pop\n  pop\n  jump\t// out\n    /* \"#utility.yul\":1403:1583   */\ntag_23:\n    /* \"#utility.yul\":1451:1528   */\n  0x4e487b7100000000000000000000000000000000000000000000000000000000\n    /* \"#utility.yul\":1448:1449   */\n  0x00\n    /* \"#utility.yul\":1441:1529   */\n  mstore\n    /* \"#utility.yul\":1548:1552   */\n  0x51\n    /* \"#utility.yul\":1545:1546   */\n  0x04\n    /* \"#utility.yul\":1538:1553   */\n  mstore\n    /* \"#utility.yul\":1572:1576   */\n  0x24\n    /* \"#utility.yul\":1569:1570   */\n  0x00\n    /* \"#utility.yul\":1562:1577   */\n  revert\n    /* \"contracts/Parent.sol\":114:256  contract ParentAAAs {... */\ntag_8:\n  dataSize(sub_0)\n  dup1\n  dataOffset(sub_0)\n  0x00\n  codecopy\n  0x00\n  return\nstop\n\nsub_0: assembly {\n        /* \"contracts/Parent.sol\":114:256  contract ParentAAAs {... */\n      mstore(0x40, 0x80)\n      callvalue\n      dup1\n      iszero\n      tag_1\n      jumpi\n      0x00\n      dup1\n      revert\n    tag_1:\n      pop\n      jumpi(tag_2, lt(calldatasize, 0x04))\n      shr(0xe0, calldataload(0x00))\n      dup1\n      0x3fa4f245\n      eq\n      tag_3\n      jumpi\n    tag_2:\n      0x00\n      dup1\n      revert\n        /* \"contracts/Parent.sol\":140:160  uint256 public value */\n    tag_3:\n      tag_4\n      tag_5\n      jump\t// in\n    tag_4:\n      mload(0x40)\n      tag_6\n      swap2\n      swap1\n      tag_7\n      jump\t// in\n    tag_6:\n      mload(0x40)\n      dup1\n      swap2\n      sub\n      swap1\n      return\n    tag_5:\n      sload(0x00)\n      dup2\n      jump\t// out\n        /* \"hardhat/console.sol\":187:665  function _sendLogPayloadImplementation(bytes memory payload) internal view {... */\n    tag_8:\n        /* \"hardhat/console.sol\":273:295  address consoleAddress */\n      0x00\n        /* \"hardhat/console.sol\":136:178  0x000000000000000000636F6e736F6c652e6c6f67 */\n      0x636f6e736f6c652e6c6f67\n        /* \"hardhat/console.sol\":273:313  address consoleAddress = CONSOLE_ADDRESS */\n      swap1\n      pop\n        /* \"hardhat/console.sol\":612:613  0 */\n      0x00\n        /* \"hardhat/console.sol\":588:589  0 */\n      dup1\n        /* \"hardhat/console.sol\":557:564  payload */\n      dup4\n        /* \"hardhat/console.sol\":551:565  mload(payload) */\n      mload\n        /* \"hardhat/console.sol\":525:527  32 */\n      0x20\n        /* \"hardhat/console.sol\":516:523  payload */\n      dup6\n        /* \"hardhat/console.sol\":512:528  add(payload, 32) */\n      add\n        /* \"hardhat/console.sol\":475:489  consoleAddress */\n      dup5\n        /* \"hardhat/console.sol\":447:452  gas() */\n      gas\n        /* \"hardhat/console.sol\":414:632  staticcall(... */\n      staticcall\n        /* \"hardhat/console.sol\":392:647  pop(... */\n      pop\n        /* \"hardhat/console.sol\":377:658  {... */\n      pop\n        /* \"hardhat/console.sol\":187:665  function _sendLogPayloadImplementation(bytes memory payload) internal view {... */\n      pop\n      jump\t// out\n    tag_9:\n      tag_11\n      tag_12\n      jump\t// in\n    tag_11:\n      jump\t// out\n        /* \"#utility.yul\":7:84   */\n    tag_13:\n        /* \"#utility.yul\":44:51   */\n      0x00\n        /* \"#utility.yul\":73:78   */\n      dup2\n        /* \"#utility.yul\":62:78   */\n      swap1\n      pop\n        /* \"#utility.yul\":7:84   */\n      swap2\n      swap1\n      pop\n      jump\t// out\n        /* \"#utility.yul\":90:208   */\n    tag_14:\n        /* \"#utility.yul\":177:201   */\n      tag_18\n        /* \"#utility.yul\":195:200   */\n      dup2\n        /* \"#utility.yul\":177:201   */\n      tag_13\n      jump\t// in\n    tag_18:\n        /* \"#utility.yul\":172:175   */\n      dup3\n        /* \"#utility.yul\":165:202   */\n      mstore\n        /* \"#utility.yul\":90:208   */\n      pop\n      pop\n      jump\t// out\n        /* \"#utility.yul\":214:436   */\n    tag_7:\n        /* \"#utility.yul\":307:311   */\n      0x00\n        /* \"#utility.yul\":345:347   */\n      0x20\n        /* \"#utility.yul\":334:343   */\n      dup3\n        /* \"#utility.yul\":330:348   */\n      add\n        /* \"#utility.yul\":322:348   */\n      swap1\n      pop\n        /* \"#utility.yul\":358:429   */\n      tag_20\n        /* \"#utility.yul\":426:427   */\n      0x00\n        /* \"#utility.yul\":415:424   */\n      dup4\n        /* \"#utility.yul\":411:428   */\n      add\n        /* \"#utility.yul\":402:408   */\n      dup5\n        /* \"#utility.yul\":358:429   */\n      tag_14\n      jump\t// in\n    tag_20:\n        /* \"#utility.yul\":214:436   */\n      swap3\n      swap2\n      pop\n      pop\n      jump\t// out\n        /* \"#utility.yul\":442:622   */\n    tag_12:\n        /* \"#utility.yul\":490:567   */\n      0x4e487b7100000000000000000000000000000000000000000000000000000000\n        /* \"#utility.yul\":487:488   */\n      0x00\n        /* \"#utility.yul\":480:568   */\n      mstore\n        /* \"#utility.yul\":587:591   */\n      0x51\n        /* \"#utility.yul\":584:585   */\n      0x04\n        /* \"#utility.yul\":577:592   */\n      mstore\n        /* \"#utility.yul\":611:615   */\n      0x24\n        /* \"#utility.yul\":608:609   */\n      0x00\n        /* \"#utility.yul\":601:616   */\n      revert\n\n    auxdata: 0xa2646970667358221220cd35e396162789afde607a6db8a60470f7366f4d245df25f70e2697b7dd73b4f64736f6c634300081a0033\n}\n",
				"bytecode": {
					"linkReferences": {},
					"object": "608060405234801561000f575f80fd5b5060405161030f38038061030f83398181016040528101906100319190610182565b805f819055506100475f5461004d60201b60201c565b50610202565b6100e98160405160240161006191906101bc565b6040516020818303038152906040527ff82c50f1000000000000000000000000000000000000000000000000000000007bffffffffffffffffffffffffffffffffffffffffffffffffffffffff19166020820180517bffffffffffffffffffffffffffffffffffffffffffffffffffffffff83818316178352505050506100ec60201b60201c565b50565b61010d8161010861011060201b6100491761012f60201b60201c565b60201c565b50565b5f6a636f6e736f6c652e6c6f6790505f80835160208501845afa505050565b61014160201b61006817819050919050565b6101496101d5565b565b5f80fd5b5f819050919050565b6101618161014f565b811461016b575f80fd5b50565b5f8151905061017c81610158565b92915050565b5f602082840312156101975761019661014b565b5b5f6101a48482850161016e565b91505092915050565b6101b68161014f565b82525050565b5f6020820190506101cf5f8301846101ad565b92915050565b7f4e487b71000000000000000000000000000000000000000000000000000000005f52605160045260245ffd5b6101008061020f5f395ff3fe6080604052348015600e575f80fd5b50600436106026575f3560e01c80633fa4f24514602a575b5f80fd5b60306044565b604051603b91906086565b60405180910390f35b5f5481565b5f6a636f6e736f6c652e6c6f6790505f80835160208501845afa505050565b606e609d565b565b5f819050919050565b6080816070565b82525050565b5f60208201905060975f8301846079565b92915050565b7f4e487b71000000000000000000000000000000000000000000000000000000005f52605160045260245ffdfea2646970667358221220cd35e396162789afde607a6db8a60470f7366f4d245df25f70e2697b7dd73b4f64736f6c634300081a0033",
					"opcodes": "PUSH1 0x80 PUSH1 0x40 MSTORE CALLVALUE DUP1 ISZERO PUSH2 0xF JUMPI PUSH0 DUP1 REVERT JUMPDEST POP PUSH1 0x40 MLOAD PUSH2 0x30F CODESIZE SUB DUP1 PUSH2 0x30F DUP4 CODECOPY DUP2 DUP2 ADD PUSH1 0x40 MSTORE DUP2 ADD SWAP1 PUSH2 0x31 SWAP2 SWAP1 PUSH2 0x182 JUMP JUMPDEST DUP1 PUSH0 DUP2 SWAP1 SSTORE POP PUSH2 0x47 PUSH0 SLOAD PUSH2 0x4D PUSH1 0x20 SHL PUSH1 0x20 SHR JUMP JUMPDEST POP PUSH2 0x202 JUMP JUMPDEST PUSH2 0xE9 DUP2 PUSH1 0x40 MLOAD PUSH1 0x24 ADD PUSH2 0x61 SWAP2 SWAP1 PUSH2 0x1BC JUMP JUMPDEST PUSH1 0x40 MLOAD PUSH1 0x20 DUP2 DUP4 SUB SUB DUP2 MSTORE SWAP1 PUSH1 0x40 MSTORE PUSH32 0xF82C50F100000000000000000000000000000000000000000000000000000000 PUSH28 0xFFFFFFFFFFFFFFFFFFFFFFFFFFFFFFFFFFFFFFFFFFFFFFFFFFFFFFFF NOT AND PUSH1 0x20 DUP3 ADD DUP1 MLOAD PUSH28 0xFFFFFFFFFFFFFFFFFFFFFFFFFFFFFFFFFFFFFFFFFFFFFFFFFFFFFFFF DUP4 DUP2 DUP4 AND OR DUP4 MSTORE POP POP POP POP PUSH2 0xEC PUSH1 0x20 SHL PUSH1 0x20 SHR JUMP JUMPDEST POP JUMP JUMPDEST PUSH2 0x10D DUP2 PUSH2 0x108 PUSH2 0x110 PUSH1 0x20 SHL PUSH2 0x49 OR PUSH2 0x12F PUSH1 0x20 SHL PUSH1 0x20 SHR JUMP JUMPDEST PUSH1 0x20 SHR JUMP JUMPDEST POP JUMP JUMPDEST PUSH0 PUSH11 0x636F6E736F6C652E6C6F67 SWAP1 POP PUSH0 DUP1 DUP4 MLOAD PUSH1 0x20 DUP6 ADD DUP5 GAS STATICCALL POP POP POP JUMP JUMPDEST PUSH2 0x141 PUSH1 0x20 SHL PUSH2 0x68 OR DUP2 SWAP1 POP SWAP2 SWAP1 POP JUMP JUMPDEST PUSH2 0x149 PUSH2 0x1D5 JUMP JUMPDEST JUMP JUMPDEST PUSH0 DUP1 REVERT JUMPDEST PUSH0 DUP2 SWAP1 POP SWAP2 SWAP1 POP JUMP JUMPDEST PUSH2 0x161 DUP2 PUSH2 0x14F JUMP JUMPDEST DUP2 EQ PUSH2 0x16B JUMPI PUSH0 DUP1 REVERT JUMPDEST POP JUMP JUMPDEST PUSH0 DUP2 MLOAD SWAP1 POP PUSH2 0x17C DUP2 PUSH2 0x158 JUMP JUMPDEST SWAP3 SWAP2 POP POP JUMP JUMPDEST PUSH0 PUSH1 0x20 DUP3 DUP5 SUB SLT ISZERO PUSH2 0x197 JUMPI PUSH2 0x196 PUSH2 0x14B JUMP JUMPDEST JUMPDEST PUSH0 PUSH2 0x1A4 DUP5 DUP3 DUP6 ADD PUSH2 0x16E JUMP JUMPDEST SWAP2 POP POP SWAP3 SWAP2 POP POP JUMP JUMPDEST PUSH2 0x1B6 DUP2 PUSH2 0x14F JUMP JUMPDEST DUP3 MSTORE POP POP JUMP JUMPDEST PUSH0 PUSH1 0x20 DUP3 ADD SWAP1 POP PUSH2 0x1CF PUSH0 DUP4 ADD DUP5 PUSH2 0x1AD JUMP JUMPDEST SWAP3 SWAP2 POP POP JUMP JUMPDEST PUSH32 0x4E487B7100000000000000000000000000000000000000000000000000000000 PUSH0 MSTORE PUSH1 0x51 PUSH1 0x4 MSTORE PUSH1 0x24 PUSH0 REVERT JUMPDEST PUSH2 0x100 DUP1 PUSH2 0x20F PUSH0 CODECOPY PUSH0 RETURN INVALID PUSH1 0x80 PUSH1 0x40 MSTORE CALLVALUE DUP1 ISZERO PUSH1 0xE JUMPI PUSH0 DUP1 REVERT JUMPDEST POP PUSH1 0x4 CALLDATASIZE LT PUSH1 0x26 JUMPI PUSH0 CALLDATALOAD PUSH1 0xE0 SHR DUP1 PUSH4 0x3FA4F245 EQ PUSH1 0x2A JUMPI JUMPDEST PUSH0 DUP1 REVERT JUMPDEST PUSH1 0x30 PUSH1 0x44 JUMP JUMPDEST PUSH1 0x40 MLOAD PUSH1 0x3B SWAP2 SWAP1 PUSH1 0x86 JUMP JUMPDEST PUSH1 0x40 MLOAD DUP1 SWAP2 SUB SWAP1 RETURN JUMPDEST PUSH0 SLOAD DUP2 JUMP JUMPDEST PUSH0 PUSH11 0x636F6E736F6C652E6C6F67 SWAP1 POP PUSH0 DUP1 DUP4 MLOAD PUSH1 0x20 DUP6 ADD DUP5 GAS STATICCALL POP POP POP JUMP JUMPDEST PUSH1 0x6E PUSH1 0x9D JUMP JUMPDEST JUMP JUMPDEST PUSH0 DUP2 SWAP1 POP SWAP2 SWAP1 POP JUMP JUMPDEST PUSH1 0x80 DUP2 PUSH1 0x70 JUMP JUMPDEST DUP3 MSTORE POP POP JUMP JUMPDEST PUSH0 PUSH1 0x20 DUP3 ADD SWAP1 POP PUSH1 0x97 PUSH0 DUP4 ADD DUP5 PUSH1 0x79 JUMP JUMPDEST SWAP3 SWAP2 POP POP JUMP JUMPDEST PUSH32 0x4E487B7100000000000000000000000000000000000000000000000000000000 PUSH0 MSTORE PUSH1 0x51 PUSH1 0x4 MSTORE PUSH1 0x24 PUSH0 REVERT INVALID LOG2 PUSH5 0x6970667358 0x22 SLT KECCAK256 0xCD CALLDATALOAD 0xE3 SWAP7 AND 0x27 DUP10 0xAF 0xDE PUSH1 0x7A PUSH14 0xB8A60470F7366F4D245DF25F70E2 PUSH10 0x7B7DD73B4F64736F6C63 NUMBER STOP ADDMOD BYTE STOP CALLER "
				},
				"gasEstimates": {
					"creation": {
						"codeDepositCost": "51200",
						"executionCost": "infinite",
						"totalCost": "infinite"
					},
					"external": {
						"value()": "2402"
					}
				},
				"methodIdentifiers": {
					"value()": "3fa4f245"
				}
			},
			"storageLayout": {
				"storage": [
					{
						"astId": 4,
						"contract": "contracts/Parent.sol:ParentAAAs",
						"label": "value",
						"offset": 0,
						"slot": "0",
						"type": "t_uint256"
					}
				],
				"types": {
					"t_uint256": {
						"encoding": "inplace",
						"label": "uint256",
						"numberOfBytes": "32"
					}
				}
			},
			"userdoc": {
				"kind": "user",
				"methods": {},
				"version": 1
			}
		}
	}
}