{
	"data": {
		"bytecode": {
			"linkReferences": {},
			"object": "6080604052348015600e575f80fd5b5060ca80601a5f395ff3fe6080604052348015600e575f80fd5b50600436106030575f3560e01c806301725a0b14603457806380d680a614603c575b5f80fd5b603a6056565b005b6042605f565b604051604d9190607d565b60405180910390f35b605c605f565b50565b5f602a905090565b5f819050919050565b6077816067565b82525050565b5f602082019050608e5f8301846070565b9291505056fea2646970667358221220c02067c389b2d0a1090290c22ace78ce6ee5dc7c610611ec4e6f76daaf5dac4b64736f6c634300081a0033",
			"opcodes": "PUSH1 0x80 PUSH1 0x40 MSTORE CALLVALUE DUP1 ISZERO PUSH1 0xE JUMPI PUSH0 DUP1 REVERT JUMPDEST POP PUSH1 0xCA DUP1 PUSH1 0x1A PUSH0 CODECOPY PUSH0 RETURN INVALID PUSH1 0x80 PUSH1 0x40 MSTORE CALLVALUE DUP1 ISZERO PUSH1 0xE JUMPI PUSH0 DUP1 REVERT JUMPDEST POP PUSH1 0x4 CALLDATASIZE LT PUSH1 0x30 JUMPI PUSH0 CALLDATALOAD PUSH1 0xE0 SHR DUP1 PUSH4 0x1725A0B EQ PUSH1 0x34 JUMPI DUP1 PUSH4 0x80D680A6 EQ PUSH1 0x3C JUMPI JUMPDEST PUSH0 DUP1 REVERT JUMPDEST PUSH1 0x3A PUSH1 0x56 JUMP JUMPDEST STOP JUMPDEST PUSH1 0x42 PUSH1 0x5F JUMP JUMPDEST PUSH1 0x40 MLOAD PUSH1 0x4D SWAP2 SWAP1 PUSH1 0x7D JUMP JUMPDEST PUSH1 0x40 MLOAD DUP1 SWAP2 SUB SWAP1 RETURN JUMPDEST PUSH1 0x5C PUSH1 0x5F JUMP JUMPDEST POP JUMP JUMPDEST PUSH0 PUSH1 0x2A SWAP1 POP SWAP1 JUMP JUMPDEST PUSH0 DUP2 SWAP1 POP SWAP2 SWAP1 POP JUMP JUMPDEST PUSH1 0x77 DUP2 PUSH1 0x67 JUMP JUMPDEST DUP3 MSTORE POP POP JUMP JUMPDEST PUSH0 PUSH1 0x20 DUP3 ADD SWAP1 POP PUSH1 0x8E PUSH0 DUP4 ADD DUP5 PUSH1 0x70 JUMP JUMPDEST SWAP3 SWAP2 POP POP JUMP INVALID LOG2 PUSH5 0x6970667358 0x22 SLT KECCAK256 0xC0 KECCAK256 PUSH8 0xC389B2D0A1090290 0xC2 0x2A 0xCE PUSH25 0xCE6EE5DC7C610611EC4E6F76DAAF5DAC4B64736F6C63430008 BYTE STOP CALLER "
		},
		"gasEstimates": {
			"creation": {
				"codeDepositCost": "40400",
				"executionCost": "91",
				"totalCost": "40491"
			},
			"external": {
				"demo()": "160",
				"myFuPablic()": "332"
			}
		},
		"methodIdentifiers": {
			"demo()": "01725a0b",
			"myFuPablic()": "80d680a6"
		}
	},
	"abi": [
		{
			"inputs": [],
			"name": "demo",
			"outputs": [],
			"stateMutability": "pure",
			"type": "function"
		},
		{
			"inputs": [],
			"name": "myFuPablic",
			"outputs": [
				{
					"internalType": "uint256",
					"name": "",
					"type": "uint256"
				}
			],
			"stateMutability": "pure",
			"type": "function"
		}
	]
}