{
	"data": {
		"bytecode": {
			"linkReferences": {},
			"object": "6080604052348015600e575f80fd5b506103e7606f805f8190555050805f819055505061026c8061002f5f395ff3fe608060405234801561000f575f80fd5b5060043610610060575f3560e01c80630e18f1bb14610064578063109833d11461008257806339c82a75146100a05780633fa4f245146100be5780639548a7e1146100dc578063ba85e875146100fa575b5f80fd5b61006c610118565b60405161007991906101af565b60405180910390f35b61008a610132565b60405161009791906101af565b60405180910390f35b6100a8610140565b6040516100b591906101af565b60405180910390f35b6100c6610146565b6040516100d391906101af565b60405180910390f35b6100e461014b565b6040516100f191906101af565b60405180910390f35b610102610165565b60405161010f91906101af565b60405180910390f35b5f600261012361016d565b61012d91906101f5565b905090565b5f61013b610165565b905090565b60015481565b5f5481565b5f6002610156610175565b61016091906101f5565b905090565b5f602a905090565b5f6016905090565b5f600261018061018f565b61018a91906101f5565b905090565b5f6016905090565b5f819050919050565b6101a981610197565b82525050565b5f6020820190506101c25f8301846101a0565b92915050565b7f4e487b71000000000000000000000000000000000000000000000000000000005f52601160045260245ffd5b5f6101ff82610197565b915061020a83610197565b925082820261021881610197565b9150828204841483151761022f5761022e6101c8565b5b509291505056fea26469706673582212202391c8fb677d70713bf8642c80f32befe5ba4c947b11b04e53b5befbdb22225c64736f6c634300081a0033",
			"opcodes": "PUSH1 0x80 PUSH1 0x40 MSTORE CALLVALUE DUP1 ISZERO PUSH1 0xE JUMPI PUSH0 DUP1 REVERT JUMPDEST POP PUSH2 0x3E7 PUSH1 0x6F DUP1 PUSH0 DUP2 SWAP1 SSTORE POP POP DUP1 PUSH0 DUP2 SWAP1 SSTORE POP POP PUSH2 0x26C DUP1 PUSH2 0x2F PUSH0 CODECOPY PUSH0 RETURN INVALID PUSH1 0x80 PUSH1 0x40 MSTORE CALLVALUE DUP1 ISZERO PUSH2 0xF JUMPI PUSH0 DUP1 REVERT JUMPDEST POP PUSH1 0x4 CALLDATASIZE LT PUSH2 0x60 JUMPI PUSH0 CALLDATALOAD PUSH1 0xE0 SHR DUP1 PUSH4 0xE18F1BB EQ PUSH2 0x64 JUMPI DUP1 PUSH4 0x109833D1 EQ PUSH2 0x82 JUMPI DUP1 PUSH4 0x39C82A75 EQ PUSH2 0xA0 JUMPI DUP1 PUSH4 0x3FA4F245 EQ PUSH2 0xBE JUMPI DUP1 PUSH4 0x9548A7E1 EQ PUSH2 0xDC JUMPI DUP1 PUSH4 0xBA85E875 EQ PUSH2 0xFA JUMPI JUMPDEST PUSH0 DUP1 REVERT JUMPDEST PUSH2 0x6C PUSH2 0x118 JUMP JUMPDEST PUSH1 0x40 MLOAD PUSH2 0x79 SWAP2 SWAP1 PUSH2 0x1AF JUMP JUMPDEST PUSH1 0x40 MLOAD DUP1 SWAP2 SUB SWAP1 RETURN JUMPDEST PUSH2 0x8A PUSH2 0x132 JUMP JUMPDEST PUSH1 0x40 MLOAD PUSH2 0x97 SWAP2 SWAP1 PUSH2 0x1AF JUMP JUMPDEST PUSH1 0x40 MLOAD DUP1 SWAP2 SUB SWAP1 RETURN JUMPDEST PUSH2 0xA8 PUSH2 0x140 JUMP JUMPDEST PUSH1 0x40 MLOAD PUSH2 0xB5 SWAP2 SWAP1 PUSH2 0x1AF JUMP JUMPDEST PUSH1 0x40 MLOAD DUP1 SWAP2 SUB SWAP1 RETURN JUMPDEST PUSH2 0xC6 PUSH2 0x146 JUMP JUMPDEST PUSH1 0x40 MLOAD PUSH2 0xD3 SWAP2 SWAP1 PUSH2 0x1AF JUMP JUMPDEST PUSH1 0x40 MLOAD DUP1 SWAP2 SUB SWAP1 RETURN JUMPDEST PUSH2 0xE4 PUSH2 0x14B JUMP JUMPDEST PUSH1 0x40 MLOAD PUSH2 0xF1 SWAP2 SWAP1 PUSH2 0x1AF JUMP JUMPDEST PUSH1 0x40 MLOAD DUP1 SWAP2 SUB SWAP1 RETURN JUMPDEST PUSH2 0x102 PUSH2 0x165 JUMP JUMPDEST PUSH1 0x40 MLOAD PUSH2 0x10F SWAP2 SWAP1 PUSH2 0x1AF JUMP JUMPDEST PUSH1 0x40 MLOAD DUP1 SWAP2 SUB SWAP1 RETURN JUMPDEST PUSH0 PUSH1 0x2 PUSH2 0x123 PUSH2 0x16D JUMP JUMPDEST PUSH2 0x12D SWAP2 SWAP1 PUSH2 0x1F5 JUMP JUMPDEST SWAP1 POP SWAP1 JUMP JUMPDEST PUSH0 PUSH2 0x13B PUSH2 0x165 JUMP JUMPDEST SWAP1 POP SWAP1 JUMP JUMPDEST PUSH1 0x1 SLOAD DUP2 JUMP JUMPDEST PUSH0 SLOAD DUP2 JUMP JUMPDEST PUSH0 PUSH1 0x2 PUSH2 0x156 PUSH2 0x175 JUMP JUMPDEST PUSH2 0x160 SWAP2 SWAP1 PUSH2 0x1F5 JUMP JUMPDEST SWAP1 POP SWAP1 JUMP JUMPDEST PUSH0 PUSH1 0x2A SWAP1 POP SWAP1 JUMP JUMPDEST PUSH0 PUSH1 0x16 SWAP1 POP SWAP1 JUMP JUMPDEST PUSH0 PUSH1 0x2 PUSH2 0x180 PUSH2 0x18F JUMP JUMPDEST PUSH2 0x18A SWAP2 SWAP1 PUSH2 0x1F5 JUMP JUMPDEST SWAP1 POP SWAP1 JUMP JUMPDEST PUSH0 PUSH1 0x16 SWAP1 POP SWAP1 JUMP JUMPDEST PUSH0 DUP2 SWAP1 POP SWAP2 SWAP1 POP JUMP JUMPDEST PUSH2 0x1A9 DUP2 PUSH2 0x197 JUMP JUMPDEST DUP3 MSTORE POP POP JUMP JUMPDEST PUSH0 PUSH1 0x20 DUP3 ADD SWAP1 POP PUSH2 0x1C2 PUSH0 DUP4 ADD DUP5 PUSH2 0x1A0 JUMP JUMPDEST SWAP3 SWAP2 POP POP JUMP JUMPDEST PUSH32 0x4E487B7100000000000000000000000000000000000000000000000000000000 PUSH0 MSTORE PUSH1 0x11 PUSH1 0x4 MSTORE PUSH1 0x24 PUSH0 REVERT JUMPDEST PUSH0 PUSH2 0x1FF DUP3 PUSH2 0x197 JUMP JUMPDEST SWAP2 POP PUSH2 0x20A DUP4 PUSH2 0x197 JUMP JUMPDEST SWAP3 POP DUP3 DUP3 MUL PUSH2 0x218 DUP2 PUSH2 0x197 JUMP JUMPDEST SWAP2 POP DUP3 DUP3 DIV DUP5 EQ DUP4 ISZERO OR PUSH2 0x22F JUMPI PUSH2 0x22E PUSH2 0x1C8 JUMP JUMPDEST JUMPDEST POP SWAP3 SWAP2 POP POP JUMP INVALID LOG2 PUSH5 0x6970667358 0x22 SLT KECCAK256 0x23 SWAP2 0xC8 0xFB PUSH8 0x7D70713BF8642C80 RETURN 0x2B 0xEF 0xE5 0xBA 0x4C SWAP5 PUSH28 0x11B04E53B5BEFBDB22225C64736F6C634300081A0033000000000000 "
		},
		"gasEstimates": {
			"creation": {
				"codeDepositCost": "124000",
				"executionCost": "27305",
				"totalCost": "151305"
			},
			"external": {
				"childValue()": "2447",
				"demos()": "366",
				"myFuConst()": "infinite",
				"myFuConstVirtual()": "infinite",
				"myFuParentA()": "420",
				"value()": "2468"
			}
		},
		"methodIdentifiers": {
			"childValue()": "39c82a75",
			"demos()": "109833d1",
			"myFuConst()": "0e18f1bb",
			"myFuConstVirtual()": "9548a7e1",
			"myFuParentA()": "ba85e875",
			"value()": "3fa4f245"
		}
	},
	"abi": [
		{
			"inputs": [],
			"name": "childValue",
			"outputs": [
				{
					"internalType": "uint256",
					"name": "",
					"type": "uint256"
				}
			],
			"stateMutability": "view",
			"type": "function"
		},
		{
			"inputs": [],
			"name": "demos",
			"outputs": [
				{
					"internalType": "uint256",
					"name": "",
					"type": "uint256"
				}
			],
			"stateMutability": "pure",
			"type": "function"
		},
		{
			"inputs": [],
			"name": "myFuConst",
			"outputs": [
				{
					"internalType": "uint256",
					"name": "",
					"type": "uint256"
				}
			],
			"stateMutability": "pure",
			"type": "function"
		},
		{
			"inputs": [],
			"name": "myFuConstVirtual",
			"outputs": [
				{
					"internalType": "uint256",
					"name": "",
					"type": "uint256"
				}
			],
			"stateMutability": "pure",
			"type": "function"
		},
		{
			"inputs": [],
			"name": "myFuParentA",
			"outputs": [
				{
					"internalType": "uint256",
					"name": "",
					"type": "uint256"
				}
			],
			"stateMutability": "pure",
			"type": "function"
		},
		{
			"inputs": [],
			"name": "value",
			"outputs": [
				{
					"internalType": "uint256",
					"name": "",
					"type": "uint256"
				}
			],
			"stateMutability": "view",
			"type": "function"
		}
	]
}