{
	"data": {
		"bytecode": {
			"linkReferences": {},
			"object": "6080604052348015600e575f80fd5b506040516102f93803806102f98339818101604052810190602e91906074565b606f805f8190555050805f8190555050609a565b5f80fd5b5f819050919050565b6056816046565b8114605f575f80fd5b50565b5f81519050606e81604f565b92915050565b5f6020828403121560865760856042565b5b5f6091848285016062565b91505092915050565b610252806100a75f395ff3fe608060405234801561000f575f80fd5b5060043610610060575f3560e01c80630e18f1bb14610064578063109833d11461008257806339c82a75146100a05780633fa4f245146100be5780639548a7e1146100dc578063ba85e875146100fa575b5f80fd5b61006c610118565b6040516100799190610195565b60405180910390f35b61008a610132565b6040516100979190610195565b60405180910390f35b6100a8610140565b6040516100b59190610195565b60405180910390f35b6100c6610146565b6040516100d39190610195565b60405180910390f35b6100e461014b565b6040516100f19190610195565b60405180910390f35b610102610165565b60405161010f9190610195565b60405180910390f35b5f600261012361016d565b61012d91906101db565b905090565b5f61013b610165565b905090565b60015481565b5f5481565b5f6002610156610175565b61016091906101db565b905090565b5f602a905090565b5f6016905090565b5f6016905090565b5f819050919050565b61018f8161017d565b82525050565b5f6020820190506101a85f830184610186565b92915050565b7f4e487b71000000000000000000000000000000000000000000000000000000005f52601160045260245ffd5b5f6101e58261017d565b91506101f08361017d565b92508282026101fe8161017d565b91508282048414831517610215576102146101ae565b5b509291505056fea2646970667358221220722d62f18ed0ed07608885f1445d4008a10575c3c05c3e3fd8bb56e7bccab91564736f6c634300081a0033",
			"opcodes": "PUSH1 0x80 PUSH1 0x40 MSTORE CALLVALUE DUP1 ISZERO PUSH1 0xE JUMPI PUSH0 DUP1 REVERT JUMPDEST POP PUSH1 0x40 MLOAD PUSH2 0x2F9 CODESIZE SUB DUP1 PUSH2 0x2F9 DUP4 CODECOPY DUP2 DUP2 ADD PUSH1 0x40 MSTORE DUP2 ADD SWAP1 PUSH1 0x2E SWAP2 SWAP1 PUSH1 0x74 JUMP JUMPDEST PUSH1 0x6F DUP1 PUSH0 DUP2 SWAP1 SSTORE POP POP DUP1 PUSH0 DUP2 SWAP1 SSTORE POP POP PUSH1 0x9A JUMP JUMPDEST PUSH0 DUP1 REVERT JUMPDEST PUSH0 DUP2 SWAP1 POP SWAP2 SWAP1 POP JUMP JUMPDEST PUSH1 0x56 DUP2 PUSH1 0x46 JUMP JUMPDEST DUP2 EQ PUSH1 0x5F JUMPI PUSH0 DUP1 REVERT JUMPDEST POP JUMP JUMPDEST PUSH0 DUP2 MLOAD SWAP1 POP PUSH1 0x6E DUP2 PUSH1 0x4F JUMP JUMPDEST SWAP3 SWAP2 POP POP JUMP JUMPDEST PUSH0 PUSH1 0x20 DUP3 DUP5 SUB SLT ISZERO PUSH1 0x86 JUMPI PUSH1 0x85 PUSH1 0x42 JUMP JUMPDEST JUMPDEST PUSH0 PUSH1 0x91 DUP5 DUP3 DUP6 ADD PUSH1 0x62 JUMP JUMPDEST SWAP2 POP POP SWAP3 SWAP2 POP POP JUMP JUMPDEST PUSH2 0x252 DUP1 PUSH2 0xA7 PUSH0 CODECOPY PUSH0 RETURN INVALID PUSH1 0x80 PUSH1 0x40 MSTORE CALLVALUE DUP1 ISZERO PUSH2 0xF JUMPI PUSH0 DUP1 REVERT JUMPDEST POP PUSH1 0x4 CALLDATASIZE LT PUSH2 0x60 JUMPI PUSH0 CALLDATALOAD PUSH1 0xE0 SHR DUP1 PUSH4 0xE18F1BB EQ PUSH2 0x64 JUMPI DUP1 PUSH4 0x109833D1 EQ PUSH2 0x82 JUMPI DUP1 PUSH4 0x39C82A75 EQ PUSH2 0xA0 JUMPI DUP1 PUSH4 0x3FA4F245 EQ PUSH2 0xBE JUMPI DUP1 PUSH4 0x9548A7E1 EQ PUSH2 0xDC JUMPI DUP1 PUSH4 0xBA85E875 EQ PUSH2 0xFA JUMPI JUMPDEST PUSH0 DUP1 REVERT JUMPDEST PUSH2 0x6C PUSH2 0x118 JUMP JUMPDEST PUSH1 0x40 MLOAD PUSH2 0x79 SWAP2 SWAP1 PUSH2 0x195 JUMP JUMPDEST PUSH1 0x40 MLOAD DUP1 SWAP2 SUB SWAP1 RETURN JUMPDEST PUSH2 0x8A PUSH2 0x132 JUMP JUMPDEST PUSH1 0x40 MLOAD PUSH2 0x97 SWAP2 SWAP1 PUSH2 0x195 JUMP JUMPDEST PUSH1 0x40 MLOAD DUP1 SWAP2 SUB SWAP1 RETURN JUMPDEST PUSH2 0xA8 PUSH2 0x140 JUMP JUMPDEST PUSH1 0x40 MLOAD PUSH2 0xB5 SWAP2 SWAP1 PUSH2 0x195 JUMP JUMPDEST PUSH1 0x40 MLOAD DUP1 SWAP2 SUB SWAP1 RETURN JUMPDEST PUSH2 0xC6 PUSH2 0x146 JUMP JUMPDEST PUSH1 0x40 MLOAD PUSH2 0xD3 SWAP2 SWAP1 PUSH2 0x195 JUMP JUMPDEST PUSH1 0x40 MLOAD DUP1 SWAP2 SUB SWAP1 RETURN JUMPDEST PUSH2 0xE4 PUSH2 0x14B JUMP JUMPDEST PUSH1 0x40 MLOAD PUSH2 0xF1 SWAP2 SWAP1 PUSH2 0x195 JUMP JUMPDEST PUSH1 0x40 MLOAD DUP1 SWAP2 SUB SWAP1 RETURN JUMPDEST PUSH2 0x102 PUSH2 0x165 JUMP JUMPDEST PUSH1 0x40 MLOAD PUSH2 0x10F SWAP2 SWAP1 PUSH2 0x195 JUMP JUMPDEST PUSH1 0x40 MLOAD DUP1 SWAP2 SUB SWAP1 RETURN JUMPDEST PUSH0 PUSH1 0x2 PUSH2 0x123 PUSH2 0x16D JUMP JUMPDEST PUSH2 0x12D SWAP2 SWAP1 PUSH2 0x1DB JUMP JUMPDEST SWAP1 POP SWAP1 JUMP JUMPDEST PUSH0 PUSH2 0x13B PUSH2 0x165 JUMP JUMPDEST SWAP1 POP SWAP1 JUMP JUMPDEST PUSH1 0x1 SLOAD DUP2 JUMP JUMPDEST PUSH0 SLOAD DUP2 JUMP JUMPDEST PUSH0 PUSH1 0x2 PUSH2 0x156 PUSH2 0x175 JUMP JUMPDEST PUSH2 0x160 SWAP2 SWAP1 PUSH2 0x1DB JUMP JUMPDEST SWAP1 POP SWAP1 JUMP JUMPDEST PUSH0 PUSH1 0x2A SWAP1 POP SWAP1 JUMP JUMPDEST PUSH0 PUSH1 0x16 SWAP1 POP SWAP1 JUMP JUMPDEST PUSH0 PUSH1 0x16 SWAP1 POP SWAP1 JUMP JUMPDEST PUSH0 DUP2 SWAP1 POP SWAP2 SWAP1 POP JUMP JUMPDEST PUSH2 0x18F DUP2 PUSH2 0x17D JUMP JUMPDEST DUP3 MSTORE POP POP JUMP JUMPDEST PUSH0 PUSH1 0x20 DUP3 ADD SWAP1 POP PUSH2 0x1A8 PUSH0 DUP4 ADD DUP5 PUSH2 0x186 JUMP JUMPDEST SWAP3 SWAP2 POP POP JUMP JUMPDEST PUSH32 0x4E487B7100000000000000000000000000000000000000000000000000000000 PUSH0 MSTORE PUSH1 0x11 PUSH1 0x4 MSTORE PUSH1 0x24 PUSH0 REVERT JUMPDEST PUSH0 PUSH2 0x1E5 DUP3 PUSH2 0x17D JUMP JUMPDEST SWAP2 POP PUSH2 0x1F0 DUP4 PUSH2 0x17D JUMP JUMPDEST SWAP3 POP DUP3 DUP3 MUL PUSH2 0x1FE DUP2 PUSH2 0x17D JUMP JUMPDEST SWAP2 POP DUP3 DUP3 DIV DUP5 EQ DUP4 ISZERO OR PUSH2 0x215 JUMPI PUSH2 0x214 PUSH2 0x1AE JUMP JUMPDEST JUMPDEST POP SWAP3 SWAP2 POP POP JUMP INVALID LOG2 PUSH5 0x6970667358 0x22 SLT KECCAK256 PUSH19 0x2D62F18ED0ED07608885F1445D4008A10575C3 0xC0 TLOAD RETURNDATACOPY EXTCODEHASH 0xD8 0xBB JUMP 0xE7 0xBC 0xCA 0xB9 ISZERO PUSH5 0x736F6C6343 STOP ADDMOD BYTE STOP CALLER "
		},
		"gasEstimates": {
			"creation": {
				"codeDepositCost": "118800",
				"executionCost": "infinite",
				"totalCost": "infinite"
			},
			"external": {
				"childValue()": "2447",
				"demos()": "366",
				"myFuConst()": "infinite",
				"myFuConstVirtual()": "infinite",
				"myFuParentA()": "420",
				"value()": "2468"
			}
		},
		"methodIdentifiers": {
			"childValue()": "39c82a75",
			"demos()": "109833d1",
			"myFuConst()": "0e18f1bb",
			"myFuConstVirtual()": "9548a7e1",
			"myFuParentA()": "ba85e875",
			"value()": "3fa4f245"
		}
	},
	"abi": [
		{
			"inputs": [
				{
					"internalType": "uint256",
					"name": "_input",
					"type": "uint256"
				}
			],
			"stateMutability": "nonpayable",
			"type": "constructor"
		},
		{
			"inputs": [],
			"name": "childValue",
			"outputs": [
				{
					"internalType": "uint256",
					"name": "",
					"type": "uint256"
				}
			],
			"stateMutability": "view",
			"type": "function"
		},
		{
			"inputs": [],
			"name": "demos",
			"outputs": [
				{
					"internalType": "uint256",
					"name": "",
					"type": "uint256"
				}
			],
			"stateMutability": "pure",
			"type": "function"
		},
		{
			"inputs": [],
			"name": "myFuConst",
			"outputs": [
				{
					"internalType": "uint256",
					"name": "",
					"type": "uint256"
				}
			],
			"stateMutability": "pure",
			"type": "function"
		},
		{
			"inputs": [],
			"name": "myFuConstVirtual",
			"outputs": [
				{
					"internalType": "uint256",
					"name": "",
					"type": "uint256"
				}
			],
			"stateMutability": "pure",
			"type": "function"
		},
		{
			"inputs": [],
			"name": "myFuParentA",
			"outputs": [
				{
					"internalType": "uint256",
					"name": "",
					"type": "uint256"
				}
			],
			"stateMutability": "pure",
			"type": "function"
		},
		{
			"inputs": [],
			"name": "value",
			"outputs": [
				{
					"internalType": "uint256",
					"name": "",
					"type": "uint256"
				}
			],
			"stateMutability": "view",
			"type": "function"
		}
	]
}