{
	"data": {
		"bytecode": {
			"linkReferences": {},
			"object": "6080604052348015600e575f80fd5b506101998061001c5f395ff3fe608060405234801561000f575f80fd5b506004361061003f575f3560e01c806358d1269314610043578063ba85e87514610061578063d80c0f4c1461007f575b5f80fd5b61004b61009d565b60405161005891906100ea565b60405180910390f35b6100696100a5565b60405161007691906100ea565b60405180910390f35b6100876100ad565b60405161009491906100ea565b60405180910390f35b5f600f905090565b5f602a905090565b5f806100b76100a5565b6100bf61009d565b6100c99190610130565b90508091505090565b5f819050919050565b6100e4816100d2565b82525050565b5f6020820190506100fd5f8301846100db565b92915050565b7f4e487b71000000000000000000000000000000000000000000000000000000005f52601160045260245ffd5b5f61013a826100d2565b9150610145836100d2565b925082820190508082111561015d5761015c610103565b5b9291505056fea2646970667358221220b5fc22f1cf50b9d8a72c9646eb4d9f4818a55e29f2bfdd905cb718b725e995cd64736f6c634300081a0033",
			"opcodes": "PUSH1 0x80 PUSH1 0x40 MSTORE CALLVALUE DUP1 ISZERO PUSH1 0xE JUMPI PUSH0 DUP1 REVERT JUMPDEST POP PUSH2 0x199 DUP1 PUSH2 0x1C PUSH0 CODECOPY PUSH0 RETURN INVALID PUSH1 0x80 PUSH1 0x40 MSTORE CALLVALUE DUP1 ISZERO PUSH2 0xF JUMPI PUSH0 DUP1 REVERT JUMPDEST POP PUSH1 0x4 CALLDATASIZE LT PUSH2 0x3F JUMPI PUSH0 CALLDATALOAD PUSH1 0xE0 SHR DUP1 PUSH4 0x58D12693 EQ PUSH2 0x43 JUMPI DUP1 PUSH4 0xBA85E875 EQ PUSH2 0x61 JUMPI DUP1 PUSH4 0xD80C0F4C EQ PUSH2 0x7F JUMPI JUMPDEST PUSH0 DUP1 REVERT JUMPDEST PUSH2 0x4B PUSH2 0x9D JUMP JUMPDEST PUSH1 0x40 MLOAD PUSH2 0x58 SWAP2 SWAP1 PUSH2 0xEA JUMP JUMPDEST PUSH1 0x40 MLOAD DUP1 SWAP2 SUB SWAP1 RETURN JUMPDEST PUSH2 0x69 PUSH2 0xA5 JUMP JUMPDEST PUSH1 0x40 MLOAD PUSH2 0x76 SWAP2 SWAP1 PUSH2 0xEA JUMP JUMPDEST PUSH1 0x40 MLOAD DUP1 SWAP2 SUB SWAP1 RETURN JUMPDEST PUSH2 0x87 PUSH2 0xAD JUMP JUMPDEST PUSH1 0x40 MLOAD PUSH2 0x94 SWAP2 SWAP1 PUSH2 0xEA JUMP JUMPDEST PUSH1 0x40 MLOAD DUP1 SWAP2 SUB SWAP1 RETURN JUMPDEST PUSH0 PUSH1 0xF SWAP1 POP SWAP1 JUMP JUMPDEST PUSH0 PUSH1 0x2A SWAP1 POP SWAP1 JUMP JUMPDEST PUSH0 DUP1 PUSH2 0xB7 PUSH2 0xA5 JUMP JUMPDEST PUSH2 0xBF PUSH2 0x9D JUMP JUMPDEST PUSH2 0xC9 SWAP2 SWAP1 PUSH2 0x130 JUMP JUMPDEST SWAP1 POP DUP1 SWAP2 POP POP SWAP1 JUMP JUMPDEST PUSH0 DUP2 SWAP1 POP SWAP2 SWAP1 POP JUMP JUMPDEST PUSH2 0xE4 DUP2 PUSH2 0xD2 JUMP JUMPDEST DUP3 MSTORE POP POP JUMP JUMPDEST PUSH0 PUSH1 0x20 DUP3 ADD SWAP1 POP PUSH2 0xFD PUSH0 DUP4 ADD DUP5 PUSH2 0xDB JUMP JUMPDEST SWAP3 SWAP2 POP POP JUMP JUMPDEST PUSH32 0x4E487B7100000000000000000000000000000000000000000000000000000000 PUSH0 MSTORE PUSH1 0x11 PUSH1 0x4 MSTORE PUSH1 0x24 PUSH0 REVERT JUMPDEST PUSH0 PUSH2 0x13A DUP3 PUSH2 0xD2 JUMP JUMPDEST SWAP2 POP PUSH2 0x145 DUP4 PUSH2 0xD2 JUMP JUMPDEST SWAP3 POP DUP3 DUP3 ADD SWAP1 POP DUP1 DUP3 GT ISZERO PUSH2 0x15D JUMPI PUSH2 0x15C PUSH2 0x103 JUMP JUMPDEST JUMPDEST SWAP3 SWAP2 POP POP JUMP INVALID LOG2 PUSH5 0x6970667358 0x22 SLT KECCAK256 0xB5 0xFC 0x22 CALL 0xCF POP 0xB9 0xD8 0xA7 0x2C SWAP7 CHAINID 0xEB 0x4D SWAP16 BASEFEE XOR 0xA5 MCOPY 0x29 CALLCODE 0xBF 0xDD SWAP1 TLOAD 0xB7 XOR 0xB7 0x25 0xE9 SWAP6 0xCD PUSH5 0x736F6C6343 STOP ADDMOD BYTE STOP CALLER "
		},
		"gasEstimates": {
			"creation": {
				"codeDepositCost": "81800",
				"executionCost": "127",
				"totalCost": "81927"
			},
			"external": {
				"myFuParentA()": "332",
				"myFuParentB()": "310",
				"myFuParentBD()": "infinite"
			}
		},
		"methodIdentifiers": {
			"myFuParentA()": "ba85e875",
			"myFuParentB()": "58d12693",
			"myFuParentBD()": "d80c0f4c"
		}
	},
	"abi": [
		{
			"inputs": [],
			"name": "myFuParentA",
			"outputs": [
				{
					"internalType": "uint256",
					"name": "",
					"type": "uint256"
				}
			],
			"stateMutability": "pure",
			"type": "function"
		},
		{
			"inputs": [],
			"name": "myFuParentB",
			"outputs": [
				{
					"internalType": "uint256",
					"name": "",
					"type": "uint256"
				}
			],
			"stateMutability": "pure",
			"type": "function"
		},
		{
			"inputs": [],
			"name": "myFuParentBD",
			"outputs": [
				{
					"internalType": "uint256",
					"name": "",
					"type": "uint256"
				}
			],
			"stateMutability": "pure",
			"type": "function"
		}
	]
}