{
	"data": {
		"bytecode": {
			"linkReferences": {},
			"object": "6080604052348015600e575f80fd5b5060de80601a5f395ff3fe6080604052348015600e575f80fd5b50600436106030575f3560e01c8063440d781a1460345780637e105dba14604e575b5f80fd5b603a6068565b604051604591906091565b60405180910390f35b6054606f565b604051605f91906091565b60405180910390f35b5f47905090565b5f804790508091505090565b5f819050919050565b608b81607b565b82525050565b5f60208201905060a25f8301846084565b9291505056fea2646970667358221220b0d0f0ada32b05463c5a5abaad2235ffa366909163c508643570b9f9ccdbe87964736f6c634300081a0033",
			"opcodes": "PUSH1 0x80 PUSH1 0x40 MSTORE CALLVALUE DUP1 ISZERO PUSH1 0xE JUMPI PUSH0 DUP1 REVERT JUMPDEST POP PUSH1 0xDE DUP1 PUSH1 0x1A PUSH0 CODECOPY PUSH0 RETURN INVALID PUSH1 0x80 PUSH1 0x40 MSTORE CALLVALUE DUP1 ISZERO PUSH1 0xE JUMPI PUSH0 DUP1 REVERT JUMPDEST POP PUSH1 0x4 CALLDATASIZE LT PUSH1 0x30 JUMPI PUSH0 CALLDATALOAD PUSH1 0xE0 SHR DUP1 PUSH4 0x440D781A EQ PUSH1 0x34 JUMPI DUP1 PUSH4 0x7E105DBA EQ PUSH1 0x4E JUMPI JUMPDEST PUSH0 DUP1 REVERT JUMPDEST PUSH1 0x3A PUSH1 0x68 JUMP JUMPDEST PUSH1 0x40 MLOAD PUSH1 0x45 SWAP2 SWAP1 PUSH1 0x91 JUMP JUMPDEST PUSH1 0x40 MLOAD DUP1 SWAP2 SUB SWAP1 RETURN JUMPDEST PUSH1 0x54 PUSH1 0x6F JUMP JUMPDEST PUSH1 0x40 MLOAD PUSH1 0x5F SWAP2 SWAP1 PUSH1 0x91 JUMP JUMPDEST PUSH1 0x40 MLOAD DUP1 SWAP2 SUB SWAP1 RETURN JUMPDEST PUSH0 SELFBALANCE SWAP1 POP SWAP1 JUMP JUMPDEST PUSH0 DUP1 SELFBALANCE SWAP1 POP DUP1 SWAP2 POP POP SWAP1 JUMP JUMPDEST PUSH0 DUP2 SWAP1 POP SWAP2 SWAP1 POP JUMP JUMPDEST PUSH1 0x8B DUP2 PUSH1 0x7B JUMP JUMPDEST DUP3 MSTORE POP POP JUMP JUMPDEST PUSH0 PUSH1 0x20 DUP3 ADD SWAP1 POP PUSH1 0xA2 PUSH0 DUP4 ADD DUP5 PUSH1 0x84 JUMP JUMPDEST SWAP3 SWAP2 POP POP JUMP INVALID LOG2 PUSH5 0x6970667358 0x22 SLT KECCAK256 0xB0 0xD0 CREATE 0xAD LOG3 0x2B SDIV CHAINID EXTCODECOPY GAS GAS 0xBA 0xAD 0x22 CALLDATALOAD SELFDESTRUCT LOG3 PUSH7 0x909163C5086435 PUSH17 0xB9F9CCDBE87964736F6C634300081A0033 "
		},
		"gasEstimates": {
			"creation": {
				"codeDepositCost": "44400",
				"executionCost": "91",
				"totalCost": "44491"
			},
			"external": {
				"getBalanse1()": "347",
				"getBalanse2()": "312"
			}
		},
		"methodIdentifiers": {
			"getBalanse1()": "7e105dba",
			"getBalanse2()": "440d781a"
		}
	},
	"abi": [
		{
			"inputs": [],
			"name": "getBalanse1",
			"outputs": [
				{
					"internalType": "uint256",
					"name": "",
					"type": "uint256"
				}
			],
			"stateMutability": "view",
			"type": "function"
		},
		{
			"inputs": [],
			"name": "getBalanse2",
			"outputs": [
				{
					"internalType": "uint256",
					"name": "balanse2",
					"type": "uint256"
				}
			],
			"stateMutability": "view",
			"type": "function"
		}
	]
}